{
  "contractName": "Rents",
  "abi": [
    {
      "inputs": [],
      "stateMutability": "nonpayable",
      "type": "constructor"
    },
    {
      "inputs": [
        {
          "internalType": "uint256",
          "name": "requested",
          "type": "uint256"
        },
        {
          "internalType": "uint256",
          "name": "available",
          "type": "uint256"
        }
      ],
      "name": "InsufficientBalance",
      "type": "error"
    },
    {
      "anonymous": false,
      "inputs": [
        {
          "indexed": false,
          "internalType": "address",
          "name": "from",
          "type": "address"
        },
        {
          "indexed": false,
          "internalType": "address",
          "name": "to",
          "type": "address"
        },
        {
          "indexed": false,
          "internalType": "uint256",
          "name": "amount",
          "type": "uint256"
        }
      ],
      "name": "Rented",
      "type": "event"
    },
    {
      "inputs": [
        {
          "internalType": "address",
          "name": "",
          "type": "address"
        }
      ],
      "name": "balances",
      "outputs": [
        {
          "internalType": "uint256",
          "name": "",
          "type": "uint256"
        }
      ],
      "stateMutability": "view",
      "type": "function",
      "constant": true
    },
    {
      "inputs": [
        {
          "internalType": "uint256",
          "name": "",
          "type": "uint256"
        }
      ],
      "name": "renters",
      "outputs": [
        {
          "internalType": "address",
          "name": "",
          "type": "address"
        }
      ],
      "stateMutability": "view",
      "type": "function",
      "constant": true
    },
    {
      "inputs": [],
      "name": "getRenters",
      "outputs": [
        {
          "internalType": "address[20]",
          "name": "",
          "type": "address[20]"
        }
      ],
      "stateMutability": "view",
      "type": "function",
      "constant": true
    },
    {
      "inputs": [
        {
          "internalType": "uint256",
          "name": "parkingSpaceId",
          "type": "uint256"
        }
      ],
      "name": "rent",
      "outputs": [
        {
          "internalType": "uint256",
          "name": "",
          "type": "uint256"
        }
      ],
      "stateMutability": "nonpayable",
      "type": "function"
    },
    {
      "inputs": [
        {
          "internalType": "address",
          "name": "receiver",
          "type": "address"
        },
        {
          "internalType": "uint256",
          "name": "amount",
          "type": "uint256"
        }
      ],
      "name": "send",
      "outputs": [],
      "stateMutability": "nonpayable",
      "type": "function"
    }
  ],
  "bytecode": "0x608060405234801561001057600080fd5b50610704806100206000396000f3fe608060405234801561001057600080fd5b50600436106100575760003560e01c806327e235e31461005c5780637456be7d1461008c5780638d5f18c8146100bc578063d0679d34146100da578063dcc3974b146100f6575b600080fd5b610076600480360381019061007191906103cb565b610126565b6040516100839190610563565b60405180910390f35b6100a660048036038101906100a19190610430565b61013e565b6040516100b39190610563565b60405180910390f35b6100c46101dc565b6040516100d19190610547565b60405180910390f35b6100f460048036038101906100ef91906103f4565b61025d565b005b610110600480360381019061010b9190610430565b610348565b60405161011d91906104f5565b60405180910390f35b60146020528060005260406000206000915090505481565b6000808210158015610151575060138211155b61015a57600080fd5b3360008360148110610195577f4e487b7100000000000000000000000000000000000000000000000000000000600052603260045260246000fd5b0160006101000a81548173ffffffffffffffffffffffffffffffffffffffff021916908373ffffffffffffffffffffffffffffffffffffffff160217905550819050919050565b6101e461037e565b6000601480602002604051908101604052809291908260148015610253576020028201915b8160009054906101000a900473ffffffffffffffffffffffffffffffffffffffff1673ffffffffffffffffffffffffffffffffffffffff1681526020019060010190808311610209575b5050505050905090565b80601460003373ffffffffffffffffffffffffffffffffffffffff1673ffffffffffffffffffffffffffffffffffffffff16815260200190815260200160002060008282546102ac9190610601565b9250508190555080601460008473ffffffffffffffffffffffffffffffffffffffff1673ffffffffffffffffffffffffffffffffffffffff168152602001908152602001600020600082825461030291906105ab565b925050819055507fac75316accb77b26ecc143a55be4dfbc1b88f937c0d1234f7a3aad8b4d55d22d33838360405161033c93929190610510565b60405180910390a15050565b6000816014811061035857600080fd5b016000915054906101000a900473ffffffffffffffffffffffffffffffffffffffff1681565b604051806102800160405280601490602082028036833780820191505090505090565b6000813590506103b0816106a0565b92915050565b6000813590506103c5816106b7565b92915050565b6000602082840312156103dd57600080fd5b60006103eb848285016103a1565b91505092915050565b6000806040838503121561040757600080fd5b6000610415858286016103a1565b9250506020610426858286016103b6565b9150509250929050565b60006020828403121561044257600080fd5b6000610450848285016103b6565b91505092915050565b60006104658383610471565b60208301905092915050565b61047a81610635565b82525050565b61048981610635565b82525050565b61049881610588565b6104a281846105a0565b92506104ad8261057e565b8060005b838110156104de5781516104c58782610459565b96506104d083610593565b9250506001810190506104b1565b505050505050565b6104ef81610667565b82525050565b600060208201905061050a6000830184610480565b92915050565b60006060820190506105256000830186610480565b6105326020830185610480565b61053f60408301846104e6565b949350505050565b60006102808201905061055d600083018461048f565b92915050565b600060208201905061057860008301846104e6565b92915050565b6000819050919050565b600060149050919050565b6000602082019050919050565b600081905092915050565b60006105b682610667565b91506105c183610667565b9250827fffffffffffffffffffffffffffffffffffffffffffffffffffffffffffffffff038211156105f6576105f5610671565b5b828201905092915050565b600061060c82610667565b915061061783610667565b92508282101561062a57610629610671565b5b828203905092915050565b600061064082610647565b9050919050565b600073ffffffffffffffffffffffffffffffffffffffff82169050919050565b6000819050919050565b7f4e487b7100000000000000000000000000000000000000000000000000000000600052601160045260246000fd5b6106a981610635565b81146106b457600080fd5b50565b6106c081610667565b81146106cb57600080fd5b5056fea26469706673582212208588e9b5e4c316b074dd9b070636f0dd5f38e796401a639f3b7be9cc32c8701164736f6c63430008040033",
  "immutableReferences": {},
  "source": "// SPDX-License-Identifier: MIT\npragma solidity ^0.8.4;\n\ncontract Rents {\n  constructor() public {\n  }\n\n  address[20] public renters; // array of Ethereum addresses\n    mapping (address => uint) public balances; // key-value pair storage \n    // address of who deposits, uint is the amount\n\n\n\n    // Retrieving the renters\n    function getRenters() public view returns (address[20] memory) {\n        return renters;\n    }\n\n\n    // Events allow clients to react to specific contract changes you declare\n    event Rented(address from, address to, uint amount);\n\n    error InsufficientBalance(uint requested, uint available);\n\n\n    // renting a parking space\n    function rent(uint parkingSpaceId) public returns (uint) {\n        require(parkingSpaceId >= 0 && parkingSpaceId <= 19);\n\n        renters[parkingSpaceId] = msg.sender; //The address of the person or smart contract who called this function is denoted by msg.sender.\n\n        return parkingSpaceId; //return the Id provided as a confirmation.\n    }\n\n    function send(address receiver, uint amount) public {\n       /* if (amount > balances[msg.sender])\n           revert InsufficientBalance({\n                requested: amount,\n                available: balances[msg.sender] \n            });\n        */\n        balances[msg.sender] -= amount;\n        balances[receiver] += amount;\n        emit Rented(msg.sender, receiver, amount);\n    }\n\n}\n",
  "sourcePath": "C:\\Users\\sarra\\Desktop\\thesis\\VUEproject\\b-park\\b-park\\contracts\\Rents.sol",
  "compiler": {
    "name": "solc",
    "version": "0.8.4+commit.c7e474f2.Emscripten.clang"
  },
  "schemaVersion": "3.4.3",
  "updatedAt": "2022-07-06T16:41:24.813Z",
  "networkType": "ethereum",
  "devdoc": {
    "kind": "dev",
    "methods": {},
    "version": 1
  },
  "userdoc": {
    "kind": "user",
    "methods": {},
    "version": 1
  }
}